:020000020000FC
:0200000033C00B
:0200040073C0C7
:0200080081C0B5
:02003800189519
:0200400086C078
:020054002EC0BC
:1000680008E00EBF0FEF0DBFD1E0C0E100E2099339
:1000780001E00883209A5A9A5B9A0AE00093690083
:10008800E89AE99A00EA00937C0003E000937B0079
:1000980000E307BD0BE004BD02E000936E00789416
:1000A8000000000000000000FBCF80917900D1E043
:1000B800C0E1A991B8810FEFA01707E0B00731F0B0
:1000C800B7708D93B883AA9300001895002705BDD3
:1000D80003E000937A00D1E0C0E100E2099301E077
:1000E800088318953CD0F09908C00BEA00937A0071
:1000F8000DE005BD289AF09A1895002705BD2898A7
:10010800F09818952CD0F19918C0B0910100A091E1
:100118001200D0910100C0911000CA17DB0769F0E6
:100128000FEFA01707E0B00741F0E89801E000934F
:100138006E000DE005BDF19A1895D0910100C091AF
:100148001200E89A18958D9106E0809F00E2000E53
:1001580003E0101E1092890000928800189510E59F
:1001680029B1207C09B1007C0217C9F71A95D1F78B
:04017800E09A08956C
:00000001FF
