:020000020000FC
:0200000033C00B
:020010004EC0E0
:1000680008E00EBF0FEF0DBFF2E0E6E9B1E0A0E156
:10007800D2E0CEEA05910D93EC17FD07D9F707EC0E
:1000880004B900E307B90FE008B90FE000936C006A
:1000980002E00093680001E003BF789400000000CC
:1000A80088950000FBCF0F931F934F93BF93AF9397
:1000B800FF93EF9340D016B11F700FE00127D1F0E6
:1000C800002703951695E8F30A9543E0409F402DD5
:1000D80025D013B11770002703951695E8F30A95F4
:1000E800400FB1E0A0E1440FA40FED91FC910995F8
:1000F80009D0D99AEF91FF91AF91BF914F911F917C
:100108000F91189500E307B904B1076004B92A985C
:100118002998289806B10F6008B908950FE307B920
:1001280006B1007F08B904B1087F04B903B10760BC
:1001380005B9000008950F932F931F9306B10F7010
:1001480022E316B11F701017C9F72A95D1F71F912E
:060158002F910F910895A4
:1001DE002F982E984598449A08952F982E98459AC0
:1001EE00449808952F982E98459A449A08952F98DA
:1001FE002E9A4598449808952F982E9A4598449A89
:10020E0008952F982E9A459A449808952F982E9ACD
:10021E00459A449A08952F9A2E9845984498089591
:10022E002F9A2E984598449A08952F9A2E98459A6B
:10023E00449808952F982E984598449808952F9A8B
:08024E002E9A459A449A089586
:10029600EF00F400F900FE00030108010D01120150
:0802A60017011C0121012601D2
:00000001FF
